:020000040000FA
:100000000C94F00B0C9407180C94E0170C94180C3B
:100010000C94180C0C94180C0C94180C0C94180CD0
:100020000C94180C0C94180C0C94180C0C94180CC0
:100030000C94180C0C94180C0C94180C0C94180CB0
:100040000C9496170C94180C0C94180C0C94180C17
:100050000C94180C0C94180C0C94180C0C94180C90
:100060000C94180C0C94180C00070D00FE0901CC20
:10007000039B20FFFE0BFE09FE0000000706FF02A7
:100080000909070200C0C0C0C0C0C000C0C005034D
:1000900003070106D8D8D80509090701005050F810
:1000A000F850F8F850500609090700003078B4B04D
:1000B0007834B47830060909070000E4ACE8183059
:1000C000605CD49C06090907000070D8D8D870D4A9
:1000D000DCD874020404070205C0C0C0C0040909CA
:1000E000070100306060C0C0C060603004090907CB
:1000F0000100C060603030306060C0060606070056
:10010000014830FCFC30480606060700013030FC90
:10011000FC30300404040701FF707060C00401016A
:10012000070103F00403030701FF60F060060909FB
:100130000700000C0C1818306060C0C006090907E1
:1001400000003048CCCCCCCCCC48300609090700A4
:10015000003070B03030303030FC06090907000044
:1001600078CCCC0C3860C0C0FC060909070000FC44
:100170000C1830780C0CCC780609090700000C1C10
:100180003C6CCCCCFC0C0C060909070000FCC0C080
:10019000F8CC0C0CCC7806090907000078CCC0C05C
:1001A000F8CCCCCC78060909070000FC0C0C181818
:1001B0003030606006090907000078CCCCCC78CCE0
:1001C000CCCC7806090907000078CCCCCC7C0C0C90
:1001D000CC780408080701FF60F060000060F06060
:1001E0000408080701FF60F06000707060C0060935
:1001F000090700000C183060C06030180C060404B9
:10020000070002FC0000FC060909070000C060307E
:10021000180C183060C006090907000078CCCC0C17
:100220003830003030060909070000788C8CBCACEF
:10023000BC808C7806090907000078CCCCCCFCCCBB
:10024000CCCCCC060909070000F8CCCCCCF8CCCC3F
:10025000CCF806090907000078CCC0C0C0C0C0CCEB
:1002600078060909070000F8CCCCCCCCCCCCCCF873
:10027000060909070000FCC0C0C0F8C0C0C0FC06E9
:100280000909070000FCC0C0C0F8C0C0C0C0060912
:100290000907000078CCC0C0DCCCCCCC7C060909B6
:1002A000070000CCCCCCCCFCCCCCCCCC06090907CC
:1002B0000000FC30303030303030FC0609090700D7
:1002C000000C0C0C0C0C0C0CCC7806090907000077
:1002D000C4CCD8F0E0F0D8CCC4060909070000C0AF
:1002E000C0C0C0C0C0C0C0FC06090907000084CC63
:1002F000FCFCCCCCCCCCCC060909070000CCCCEC67
:10030000ECFCDCDCCCCC06090907000078CCCCCCBA
:10031000CCCCCCCC78060909070000F8CCCCCCF8C2
:10032000C0C0C0C0060A0A0700FF78CCCCCCCCCC39
:10033000ECDC780C060909070000F8CCCCCCF8F00E
:10034000D8CCC406090907000078CCC0C0780C0CD2
:10035000CC78060909070000FC30303030303030EE
:1003600030060909070000CCCCCCCCCCCCCCCC7866
:10037000060909070000CCCCCC484878303030065C
:100380000909070000CCCCCCCCCCFCFCCC84060901
:100390000907000084CC4878307848CC84060909E5
:1003A000070000CCCC7878303030303006090907AF
:1003B0000000FC0C0C183060C0C0FC0409090701E7
:1003C00000F0C0C0C0C0C0C0C0F0060909070000EE
:1003D000C0C060603018180C0C040909070100F057
:1003E00030303030303030F006040407000530780B
:1003F000CC840602020700FFFCFC0403030701078C
:10040000C06030060606070000780C7CCCCC7C0669
:100410000909070000C0C0C0F8CCCCCCCCF8060657
:100420000607000078CCC0C0CC7806090907000098
:100430000C0C0C7CCCCCCCCC7C06060607000078DF
:10044000CCFCC0CC78060909070000386C6060F06D
:10045000606060600608080700FE74CCCC78C07845
:10046000CC78060909070000C0C0C0F8CCCCCCCCC1
:10047000CC0609090700003030007030303030FC05
:10048000060B0B0700FE0C0C000C0C0C0C0C0CCC1F
:1004900078060909070000C0C0C0CCD8F0F0D8CC5D
:1004A0000609090700007030303030303030FC066B
:1004B0000606070000D8FCFCCCCCCC0606060700DC
:1004C00000F8CCCCCCCCCC06060607000078CCCC0F
:1004D000CCCC780608080700FEF8CCCCCCF8C0C01D
:1004E000C00608080700FE7CCCCCCC7C0C0C0C06AB
:1004F0000606070000F8CCC0C0C0C006060607000C
:100500000078CC6018CC780608080700006060F816
:100510006060606C38060606070000CCCCCCCCCC02
:100520007C060606070000CCCCCC787830060606A0
:10053000070000CCCCCCFCFC48060606070000CC2B
:10054000CC7878CCCC0608080700FECCCCCCCC7C90
:100550000CCC78060606070000FC0C1860C0FC04F2
:10056000090907010070C0C060C060C0C070020906
:1005700009070200C0C0C0C0C0C0C0C0C004090993
:10058000070100E030306030603030E006030307E0
:10059000000664FC98FF0608080700FEF8CCCCCCE7
:1005A000F8C0C0C006060607000078CCC0C0CC78F2
:1005B000060606070000FC30303030300608080719
:1005C00000FECCCCCCCC7C0CCC78060A0A0700FE12
:1005D000303078B4B4B4B478303006060607000082
:1005E000CCCC7878CCCC0608080700FECCCCCCCCA0
:1005F000CCFC0C0C060606070000CCCCCC7C0C0C0A
:10060000070606070000D6D6D6D6D6FE0708080786
:1006100000FED6D6D6D6D6FE06060706060700008A
:10062000F0303C36363C070606070000C6C6E6D664
:10063000D6E6050606070000C0C0F0D8D8F00606CA
:100640000607000078CC1C0CCC78070606070000D3
:10065000CCD6F6D6D6CC0606060700007CCC7C3C71
:100660006CCC0609090700003078CCCCCCFCCCCC93
:10067000CC060909070000F8C0C0C0F8CCCCCCF803
:10068000060909070000F8CCCCCCF8CCCCCCF80695
:100690000909070000FCC0C0C0C0C0C0C0C0070A34
:1006A0000A0700FF3E3636666666C6C6FEC60609FF
:1006B00009070000FCC0C0C0F0C0C0C0FC070909A9
:1006C000070000D6D6D67C387CD6D6D606090907D0
:1006D000000078CC0C0C380C0CCC7806090907000B
:1006E00000CCCCCCDCECCCCCCCCC060B0B0700008B
:1006F000CC78CCCCCCDCECCCCCCCCC07090907003A
:1007000000C6CCD8F0E0F0D8CCC606090907000036
:100710007C6C6C6CCCCCCCCCCC060909070000847A
:10072000CCFCFCCCCCCCCCCC060909070000CCCC52
:10073000CCCCFCCCCCCCCC06090907000078CCCCC6
:10074000CCCCCCCCCC78060909070000FCCCCCCCB6
:10075000CCCCCCCCCC060909070000F8CCCCCCF82A
:10076000C0C0C0C006090907000078CCC0C0C0C026
:10077000C0CC78060909070000FC3030303030303A
:100780003030060909070000CCCCCCCC7C0C0CCC5A
:1007900078070B0B0700FF107CD6D6D6D6D6D6D658
:1007A0007C1006090907000084CC4878307848CCD2
:1007B00084060B0B0700FECCCCCCCCCCCCCCCCFC38
:1007C0000C0C060909070000CCCCCCCC7C0C0C0C22
:1007D0000C070909070000D6D6D6D6D6D6D6D6FE3F
:1007E000070B0B0700FED6D6D6D6D6D6D6D6FE0633
:1007F00006070909070000F03030303C3636363C39
:10080000070909070000C6C6C6C6E6D6D6D6E6055D
:100810000909070000C0C0C0C0F0D8D8D8F0060948
:100820000907000070D80C0C3C0C0CD870070909A3
:10083000070000CCD6D6D6F6D6D6D6CC0609090700
:1008400000007CCCCCCC7C1C3C6CCC0606060700A3
:1008500000780C7CCCCC7C0609090700003860C00D
:10086000F8CCCCCCCCF8060606070000F8CCF8CCC7
:10087000CCF8050606070000F8C0C0C0C0C00607D7
:10088000070700FF3C2C6C6CCCFCCC06060607006E
:100890000078CCFCC0CC78070606070000D67C3870
:1008A0007CD6D606060607000078CC180CCC780655
:1008B0000606070000CCCCDCECCCCC06090907000E
:1008C000006C3800CCCCDCECCCCC06060607000073
:1008D000CCD8F0D8CCCC0606060700003C3C6C6CAB
:1008E000CCCC06060607000084CCFCCCCCCC06069B
:1008F00006070000CCCCFCCCCCCC060606070000DA
:1009000078CCCCCCCC78060606070000FCCCCCCC4E
:10091000CCCCFFFFFFFFFFFFFFFFFFFFFFFFFFFF4D
:10092000FFFFFFFFFFFFFFFFFFFFFFFFFFFFFFFFD7
:10093000FFFFFFFFFFFFFFFFFFFFFFFFFFFFFFFFC7
:10094000FFFFFFFFFFFFFFFFFFFFFFFFFFFFFFFFB7
:10095000FFFF00080D00FE0A01E203CF20FFFE0AA0
:10096000FE0AFE0000000807FF020A0A080300C092
:10097000C0C0C0C0C0C000C0C0050404080106D883
:10098000D8D8D80709090800006C6CFEFE6CFEFE82
:100990006C6C070B0B0800FF107CD6D0F07C1E1689
:1009A000D67C10070A0A080000E6A6EC18183030BA
:1009B0006ECACE07070708000078CCCC78CECC7E74
:1009C000020404080306C0C0C0C0050B0B0801FFE9
:1009D00018306060C0C0C060603018050B0B0801A3
:1009E000FFC0603030181818303060C007070708A3
:1009F00000011010FE38386C44060606080102306B
:100A000030FCFC30300405050802FFF0707060C057
:100A1000050101080104F804030308020060F06006
:100A2000070A0A0800000206060C183060C0C080E1
:100A3000070A0A080000386CC6C6C6C6C6C66C38A7
:100A4000060A0A0801003070F0303030303030FCD7
:100A5000070A0A0800007CC6C6060C183060C0FEF3
:100A6000070A0A080000FE060C183C060606C67CAB
:100A7000070A0A0800000C1C3C6CCCCCFE0C0C0CC9
:100A8000070A0A080000FEC0C0FCE6060606C67C8F
:100A9000070A0A0800003C60C0C0FCE6C6C6E67C47
:100AA000070A0A080000FE06060C1818303030301D
:100AB000070A0A0800007CC6C6C67CC6C6C6C67C35
:100AC000070A0A0800007CCEC6C6CE7E06060C7851
:100AD00004080808020060F060000060F06004098B
:100AE000090802FF60F06000F0707060C00609093C
:100AF0000801000C183060C06030180C06040408AF
:100B00000102FC0000FC060909080100C060301861
:100B10000C183060C0070A0A0800007CC6C6060C24
:100B200018180018180709090800007CFECEDED24C
:100B3000D2DEE07E070A0A080000387CC6C6C6FE80
:100B4000C6C6C6C6070A0A080000FC6666667C665A
:100B5000666666FC070A0A0800007CE6C6C0C0C0DC
:100B6000C0C6E67C070A0A080000FC666666666680
:100B7000666666FC070A0A080000FEC0C0C0F8C02E
:100B8000C0C0C0FE070A0A080000FEC0C0C0F8C00E
:100B9000C0C0C0C0070A0A0800007CC6C6C0C0C0EA
:100BA000CEC6C67C070A0A080000C6C6C6C6FEC670
:100BB000C6C6C6C6040A0A080200F060606060602B
:100BC000606060F0070A0A0800000E0606060606C6
:100BD00006C6C67C070A0A080000C6C6CCD8F0F0D4
:100BE000D8CCC6C6070A0A080000C0C0C0C0C0C032
:100BF000C0C0C2FE070A0A080000C6C6EEFED6C67E
:100C0000C6C6C6C6070A0A080000C6C6E6E6F6DE7D
:100C1000CECEC6C6070A0A0800007CC6C6C6C6C62F
:100C2000C6C6C67C070A0A080000FCC6C6C6C6FCC3
:100C3000C0C0C0C0070B0B0800FF7CC6C6C6C6C636
:100C4000C6C6DE7C06070A0A080000FCC6C6C6FC4B
:100C5000F8CCCCC6C6070A0A0800007CC6C6C07C11
:100C60000606C6C67C060A0A080100FC3030303091
:100C70003030303030070A0A080000C6C6C6C6C683
:100C8000C6C6C6C67C070A0A080000C6C6C6C64451
:100C90006C6C383810070A0A080000C6C6C6C6C6FB
:100CA000C6D6D6FE6C070A0A080000C6C66C6C38A9
:100CB000386C6CC6C6060A0A080100CCCCCC787821
:100CC0003030303030070A0A080000FE06060C18E3
:100CD0003060C0C0FE050B0B0801FFF8C0C0C0C0EB
:100CE000C0C0C0C0C0F8070A0A08000080C0C060C9
:100CF00030180C060602050B0B0801FFF81818182F
:100D0000181818181818F807040408000610386C8A
:100D1000C60701010800FFFE040303080207C060C4
:100D2000300707070800007C067EC6C6CE76070A95
:100D30000A080000C0C0C0DCE6C6C6C6E6DC07077D
:100D4000070800007CE6C0C0C0E67C070A0A08006D
:100D50000006060676CEC6C6C6CE7607070708008A
:100D6000007CC6C6FEC0C67C070A0A0800003C66B6
:100D7000606060FC606060600709090800FE7ECC6E
:100D8000CCCC78F07CC67C070A0A080000C0C0C042
:100D9000DCE6C6C6C6C6C6040909080200606000D3
:100DA000E060606060F0070B0B0800FE0606000EB6
:100DB00006060606C6C67C070A0A080000C0C0C0B0
:100DC000CCD8F0F0D8CCC6040A0A080200E0606073
:100DD000606060606060F00707070800006CFED686
:100DE000D6C6C6C6070707080000DCE6C6C6C6C6E4
:100DF000C60707070800007CC6C6C6C6C67C07092A
:100E0000090800FEDCE6C6C6C6E6DCC0C007090964
:100E10000800FE76CEC6C6C6CE76060607070708C9
:100E20000000DCE6C0C0C0C0C00707070800007CA7
:100E3000C660380CC67C070A0A0800006060606063
:100E4000FC606060663C070707080000C6C6C6C6AF
:100E5000C6CE76070707080000C6C6C6C66C6C3843
:100E6000070707080000C6C6C6D6D6FE6C070707E8
:100E7000080000C6C66C386CC6C60709090800FE23
:100E8000C6C6C6C6CE7606C67C070707080000FEA3
:100E90000C183060C0FE060B0B0801FF3C60606060
:100EA00030E0306060603C020A0A080300C0C0C045
:100EB000C0C0C0C0C0C0C0060B0B0801FFF01818AE
:100EC00018301C30181818F007030308000672FECB
:100ED0009CFF0608080801FEF8CCCCCCCCF8C0C0BA
:100EE00006060608010078CCC0C0CC7806060608C5
:100EF0000100FC30303030300608080801FECCCC50
:100F0000CCCC7C0CCC78080A0A0800FE18187EDBD2
:100F1000DBDBDB7E1818060606080100CC7830788B
:100F2000CCCC0708080800FECCCCCCCCCCFE060606
:100F3000060606080100CCCCDC7C0C0C0806060872
:100F40000000DBDBDBDBDBFF0808080800FEDBDB87
:100F5000DBDBDBFF0303060606080100E0E0786C3C
:100F60006C78070606080000C6C6F6DEDEF6060642
:100F700006080100C0C0F8CCCCF805060608010040
:100F8000F018381818F0080606080000CEDBFBDB66
:100F9000DBCE0606060801007CCCCC7C6CCC0609B6
:100FA000090801003078CCCCCCFCCCCCCC060909AB
:100FB000080100F8C0C0C0F8CCCCCCF8060909087C
:100FC0000100F8CCCCCCF8CCCCCCF806090908014F
:100FD00000FCCCC0C0C0C0C0C0C0070A0A0800FFE7
:100FE0003E3636666666C6C6FE82060909080100F8
:100FF000FCC0C0C0F8C0C0C0FC080909080000DB84
:10100000DBDB7E3C7EDBDBDB06090908010078CCFC
:101010000C0C180C0CCC78060909080100CCCCCCBF
:10102000DCDCECECCCCC060A0A080100CC78CCCC99
:10103000CCDCECCCCCCC070909080000C6CCD8F03D
:10104000E0F0D8CCC60709090800003E666666666F
:101050006666C6C6080909080000C3E7FFDBC3C30C
:10106000C3C3C3060909080100CCCCCCCCFCCCCC52
:10107000CCCC06090908010078CCCCCCCCCCCCCCAB
:1010800078060909080100FCCCCCCCCCCCCCCCCC6B
:10109000060909080100F8CCCCCCCCF8C0C0C006C9
:1010A000090908010078CCC0C0C0C0C0CC780609CE
:1010B00009080100FC30303030303030300609098A
:1010C000080100CCCCCCCC7C383060C0080A0A08BF
:1010D000000018187EDBDBDBDB7E18180709090827
:1010E0000000C6C66C6C386C6CC6C6070B0B0800DB
:1010F000FECCCCCCCCCCCCCCCCFE06060609090868
:101100000100CCCCCCCC7C0C0C0C0C0809090800E0
:1011100000DBDBDBDBDBDBDBDBFF080B0B0800FED4
:10112000DBDBDBDBDBDBDBDBFF03030709090800C1
:1011300000E0E060607C6666667C070909080000E4
:10114000C6C6C6F6DEDEDEDEF6060909080100C008
:10115000C0C0C0F8CCCCCCF8060909080100F018D2
:101160000C0C7C0C0C18F0080909080000CEDBDB25
:10117000DBFBDBDBDBCE0609090801007CCCCCCC39
:101180007C3C6CCCCC060606080100780C7CCCCCF0
:101190007C0609090801000478C0F8CCCCCCCC78D6
:1011A000060606080100F8CCF8CCCCF806060608BE
:1011B0000100FCCCC0C0C0C00607070801FF3C6CA2
:1011C0006CCCCCFC8406060608010078CCFCC0CCB4
:1011D00078070606080000D6D67C7CD6D60606061A
:1011E00008010078CC380CCC78060606080100CC43
:1011F000CCDCECCCCC060909080100CC7800CCCCC6
:10120000DCECCCCC060606080100CCD8F0D8CCCC5F
:101210000606060801003C6C6C6C6CCC07060608E0
:101220000000C6EEFED6C6C6060606080100CCCCF7
:10123000FCCCCCCC06060608010078CCCCCCCC7813
:10124000060606080100FCCCCCCCCCCCFFFFFFFF8F
:10125000FFFFFFFFFFFFFFFFFFFFFFFFFFFFFFFF9E
:10126000FFFFFFFFFFFFFFFFFFFFFFFFFFFFFFFF8E
:10127000FFFFFFFFFFFFFFFFFFFFFFFFFFFFFFFF7E
:10128000FFFFFFFFFFFFFFFFFFFFFFFF003B36FDFC
:10129000F51E000000002A3A001FFB1E001010205F
:1012A0001A050E04201C381E781E780FF007E0E3A4
:1012B000C7FFFFFFFFF3CF07E00FF01E781E781C7B
:1012C00038042018194B28080000380000380000A6
:1012D00038000038000038000038000038000038BE
:1012E00000003800003800003800FFFFFFFFFFFF5C
:1012F000FFFFFF0038000038000038000038000011
:10130000380000380000380000380000380000388D
:1013100000003800080A0A0C02FB1F1F3E3E3C7CFE
:101320007878F0F00A050A0E0208FFC0FFC0FFC07F
:10133000FFC0FFC00505050C0400F8F8F8F8F80D2B
:1013400020401102FE00780078007800F000F000E4
:10135000F001E001E001E003C003C003C003C007E7
:1013600080078007800F000F000F000E001E001E78
:10137000001E003C003C003C0078007800780078BB
:1013800000F000F000141E5A17010103FC000FFFCB
:10139000001FFF803F0F803E07C07C03C07C03E03E
:1013A0007C03E07C03E0F801F0F801F0F801F0F8CC
:1013B00001F0F801F0F801F0F801F0F801F0F8019F
:1013C000F0F801F0F801F0F801F07C03E07C03E0B4
:1013D0007C03E07C03E03E07C03F0F801FFF800FCF
:1013E000FF0003FC000C1E3C17040001F003F00F8B
:1013F000F03FF0FFF0FFF0FDF0F9F0E1F081F001D7
:10140000F001F001F001F001F001F001F001F00154
:10141000F001F001F001F001F001F001F001F00144
:10142000F001F001F001F0141E5A17010103FF0052
:1014300007FF801FFFC01FFFE03FFFF03F03F07E6C
:1014400001F07E01F07C01F00001F00003F00003E8
:10145000F00007E0000FE0000FC0001F80003F0019
:1014600000FE0001FC0003F80007F0000FE0003F61
:1014700080007F0000FC0000FFFFF0FFFFF0FFFF97
:10148000F0FFFFF0FFFFF0131E5A17020107FC00E8
:101490001FFF003FFF807FFF807FFFC0FC0FC0FC6D
:1014A00007C0F807C00007C00007C0000FC0003F1A
:1014B000C003FF8003FE0003FC0003FF0003FF8066
:1014C000001FC00007E00007E00007E00003E0F8AD
:1014D00007E0FC07E0FC07C07E0FC07FFF803FFFF6
:1014E000801FFF000FFC00151E5A170100003F80EF
:1014F000003F80007F8000FF8000FF8001FF8001AF
:10150000FF8003EF8003CF8007CF800F8F800F8F86
:10151000801F0F801F0F803E0F803E0F807C0F804A
:10152000FC0F80F80F80FFFFF8FFFFF8FFFFF8FFC8
:10153000FFF8FFFFF8000F80000F80000F80000F02
:1015400080000F80000F80131E5A1702007FFFC01B
:101550007FFFC07FFFC07FFFC07FFFC07C00007C9B
:1015600000007C00007C00007C00007C00007CFC13
:10157000007DFF007FFF807FFFC07F0FE07E07E0E0
:101580007C03E00003E00003E00003E00003E00070
:1015900003E0F807E0FC07E0FC0FC07FFF807FFF5F
:1015A000803FFE000FFC00141E5A17010103FE00CD
:1015B00007FF000FFF801FFFC03FFFC03F07E07E17
:1015C00003E07E03E07C00007C0000FC0000F800EB
:1015D00000F9FF00FBFF80FFFFC0FF0FE0FE07E008
:1015E000FE03F0FC03F0FC03F0FC01F0FC01F07CD6
:1015F00003F07C03F07E03E03F07E03FFFC01FFFE6
:10160000800FFF0003FE00131E5A170200FFFFE0C9
:10161000FFFFE0FFFFE0FFFFE0FFFFE00007E0006B
:1016200007E00007C0000FC0000FC0001F80001FB0
:1016300080003F00003F00003F00007E00007E0071
:1016400000FC0000FC0001FC0001F80001F80003B0
:10165000F00003F00007F00007E0000FE0000FC00B
:10166000000FC0001FC000141E5A17010107FE0022
:101670001FFF803FFFC07FFFE07FFFE07E07E07C31
:1016800003E07C03E07C03E07C03E07E07E07F0F67
:10169000C03FFF800FFF0007FC001FFF003FFFC09F
:1016A0007F0FE07C07E0FC03F0FC03F0F801F0F8AA
:1016B00003F0FC03F0FC03F0FE07F07FFFE03FFFC8
:1016C000C01FFF800FFF00141E5A17010103FC000A
:1016D0000FFF001FFF803FFFC07FFFC07E07E0FCC1
:1016E00007E0FC03E0FC03F0F803F0F803F0FC0370
:1016F000F0FC07F07C07F07F0FF03FFFF03FFDF0BC
:101700001FF9F007E1F00003F00003E00003E00040
:1017100003E07C07E07C07C07E0FC03FFF801FFF17
:10172000000FFE0007FC000514140C0500F8F8F883
:10173000F8F800000000000000000000F8F8F8F8D9
:10174000F8FFE0FFD1AFFF32FFD0FFFEFFE0FFD197
:10175000AEFFD0FFFEFFE0FFD11000FFFEFFD0FF85
:10176000E0FFC1FFD1AED580A83FD300408D14204B
:1017700000A1C8DA1281CFD9F1DB402EA4A6AFFFB9
:10178000D0FFFE00000000240027002A0000000017
:1017900000250028002B000000000023002600295F
:1017A000000404040404040404020202020202030A
:1017B0000303030303010204081020408001020414
:1017C0000810200102040810200000000800020197
:1017D0000000030407000000000000000000C31B1D
:1017E00011241FBECFEFD8E0DEBFCDBF12E0A0E0D6
:1017F000B1E0EEE4F9E302C005900D92A635B10721
:10180000D9F723E0A6E5B2E001C01D92A533B207E7
:10181000E1F71BE0C0EFDBE004C02197FE010E946E
:101820009F1CCF3ED107C9F70E942E180C94A51C0F
:101830000C94000080E008952091FF023091000395
:101840002817390799F1909300038093FF020097BE
:1018500039F120911203FC01211129C03596E49140
:10186000E09313030C96FC01849180931403809100
:101870001303082E000C990B20911403821B91096D
:1018800027FD939520911503203441F0829FC001DC
:10189000112426E0969587952A95E1F78093160303
:1018A0008AE19CE090931103809310030895213006
:1018B00031F43F96E491E09313034096D4CF3D96E4
:1018C000E491E09313030E96CECF86E480937C00E0
:1018D00080917A00806480937A0080917A0086FDFE
:1018E000FCCF80917800909179000895833081F049
:1018F00028F4813099F08230A9F008958730A9F05A
:101900008830C9F08430B1F4809180008F7D03C0AD
:10191000809180008F7780938000089584B58F77C1
:1019200084BD089584B58F7DFBCF8091B0008F7703
:101930008093B00008958091B0008F7DF9CFCF9350
:10194000DF93282F30E0F901E753F84E8491F90135
:10195000EB54F84ED491F901EF55F84EC491CC23D5
:10196000A1F081110E94760CEC2FF0E0EE0FFF1F2A
:10197000E956F84EA591B491EC91ED2381E090E009
:1019800009F480E0DF91CF91089580E090E0FACFF4
:101990001F93CF93DF93282F30E0F901E753F84EE0
:1019A0008491F901EB54F84ED491F901EF55F84EBA
:1019B000C491CC23A9F0162F81110E94760CEC2F34
:1019C000F0E0EE0FFF1FE357F84EA591B4918FB7EB
:1019D000F894EC91111108C0D095DE23DC938FBFF1
:1019E000DF91CF911F910895DE2BF8CFCF93DF9336
:1019F00090E0FC01EB54F84E24918F55984EFC0179
:101A000084918823C9F090E0880F991FFC01ED575D
:101A1000F84EA591B491FC01E357F84EC591D491CD
:101A200061110DC09FB7F8948C91209582238C93FF
:101A30008881282328839FBFDF91CF91089562304A
:101A400051F49FB7F8943C91822F809583238C9317
:101A5000E8812E2BEFCF8FB7F894EC912E2B2C939F
:101A60008FBFEACF2FB7F8946091F1027091F20224
:101A70008091F3029091F4022FBF089529B123FBC6
:101A8000882780F990E029B122FB222720F9382FFE
:101A9000880F991F822B9091D602981769F0321700
:101AA00061F021E030E03093E9022093E80291E018
:101AB0009093EA028093D60208952FEF3FEFF3CF81
:101AC0000895AF92BF92CF92DF92EF92FF920F9361
:101AD0001F93CF93DF936C017B018B01040F151FC4
:101AE000EB015E01AE18BF08C017D10759F069912C
:101AF000D601ED91FC910190F081E02DC601099590
:101B0000892B79F7C501DF91CF911F910F91FF903C
:101B1000EF90DF90CF90BF90AF9008950895DC01D3
:101B20001696ED91FC91179712968C91481B477071
:101B300081E090E001C0880F4A95EAF7E60FF11DB9
:101B40003081222319F0832B80830895809583238D
:101B5000FBCFFB014181DC0112962C9112974217B9
:101B600068F013962C911397241740F06081159616
:101B70002C91621718F424810C948F0D0895FC01A8
:101B800080819281980F92832181921760F49481D1
:101B90009F5F94839381890F821710F08FEF820FDC
:101BA000838381E0089580E00895FC0112828081A2
:101BB0008150838314820895DB01ED91FC91099497
:101BC000EF92FF920F931F93CF93DF93D82F062F9F
:101BD000C42F182FEE24EA94F82EF40E6091FD0223
:101BE0007091FE02109317030093180310921A03CA
:101BF000E092190327E133E04BE38BEF92E00E9480
:101C0000DC0D185F8F2D811B883040F7D85F88EF7F
:101C10008C0F887F8D0F9C2F977009F16091FD02CA
:101C20007091FE02809317030093180310921A0319
:101C3000C195C7708FEF90E001C0880FCA95EAF791
:101C40008093190327E133E04BE38BEF92E0DF91C0
:101C5000CF911F910F91FF90EF900C94DC0DDF91CD
:101C6000CF911F910F91FF90EF900895DF92EF9227
:101C7000FF920F931F93CF93DF93F82ED62FC42F8D
:101C8000162F01E0DD24DA94E62EE40E6091FD02C9
:101C90007091FE02F09217031093180300931A0339
:101CA000D092190327E133E04BE38BEF92E00E94DF
:101CB000DC0D185F8E2D811B883040F7D85F88EFD0
:101CC0008C0F887F8D0F9C2F977011F16091FD0212
:101CD0007091FE02F09217038093180300931A0389
:101CE000C195C7708FEF90E001C0880FCA95EAF7E1
:101CF0008093190327E133E04BE38BEF92E0DF9110
:101D0000CF911F910F91FF90EF90DF900C94DC0D1D
:101D1000DF91CF911F910F91FF90EF90DF90089589
:101D20005F926F927F928F929F92AF92BF92CF926B
:101D3000DF92EF92FF920F931F93CF93DF931F9247
:101D4000CDB7DEB77C018901FB01C280D3804B3364
:101D500009F470C0D8F4473181F1423309F43FC02F
:101D60009801B601C7010E94DC0D0F90DF91CF9161
:101D70001F910F91FF90EF90DF90CF90BF90AF90A9
:101D80009F908F907F906F905F900895463439F0C8
:101D9000473431F79E012F5F3F4F47E404C09E0157
:101DA0002F5F3F4F46E4B601C7010E94DC0D8981D9
:101DB0008695F801808381E0D8CF47E1B6010E9483
:101DC000DC0DF801808186958083828186958283EF
:101DD000818186958183838186958383ECCFF90108
:101DE000A080AA0CB180BB0CA082B18242E3B601F4
:101DF0000E94DC0D992493949A0CF8019082B18290
:101E0000980142E3B601C7010E94DC0DB394F801CA
:101E10009082B182980142E3B601C7010E94DC0DB5
:101E2000F801A082B182980142E3B601C7010E9485
:101E3000DC0DC1CFF9019281738088E0912C812C57
:101E4000880C991C880C991C97FF02C0F3E08F2A1C
:101E5000990F8150A9F7F801A080AA0CB180BB0CA2
:101E6000552453945A0C6B2C70FC04C06624639464
:101E70006B0C5A2CF8019282A082B18298014BE33C
:101E8000B601C7010E94DC0DF801508261827382A5
:101E900098014BE3B601C7010E94DC0DF801828274
:101EA000F1E07F16E9F07F16B8F022E07216E1F05B
:101EB00083E07816E9F0F801A082B182738298017C
:101EC0004BE3B601C7010E94DC0DF801508261822C
:101ED000738298014BE3A9CFE8E0AE0E5E0EEBCF24
:101EE000F8E0BF0E6F0EE7CF28EFA20E520EE3CF41
:101EF00088EFB80E680EDFCF0F931F93CF93DF9359
:101F00001F92CDB7DEB78C01FC01628173819E0107
:101F10002F5F3F4F46E40E94DC0D8981F8018083EA
:101F2000628173819E012F5F3F4F47E4C8010E9489
:101F3000DC0D8981F80181836281738130E020E0CA
:101F400048E4C8010E94DC0DF801838798012D5CEC
:101F50003F4F6281738147E1C8010E94DC0D0F9001
:101F6000DF91CF911F910F910895CF93DF93C0918F
:101F7000FD02D091FE02E0912C03F0912D0382E04E
:101F8000099530E020E04AE0BE018BEF92E00E942C
:101F9000DC0DC82FE0912C03F0912D0383E009950F
:101FA000E0912C03F0912D0380E00995CC2329F0DA
:101FB0008BEF92E00E947C0FC1E08C2FDF91CF91DC
:101FC00008950B96FC01849108950A96FC01849172
:101FD0000895FC01849108950E94E90F882321F05F
:101FE000823011F083E0089586E00895FC01E60F49
:101FF000F11D849190E0982F88273196E4918E0FFF
:10200000911D089568E00C94F60F66E00C94F60FAD
:102010002EE93FE0009709F40895F9013197F1F7AF
:102020000197F8CFCF93DF9300D0CDB7DEB720ED87
:1020300037E03A8329839091BC00982311F081E026
:102040000FC029813A81232B81F48091F60281FD12
:10205000F6CF8091F50281110DC091E09093F502C9
:102060000F900F90DF91CF91089529813A812150EF
:102070003109DFCF80E0F4CF84EA8093BC0061E0D7
:1020800080E80E941210811102C080E008958091C2
:10209000B900887F883051F0803141F08091F5029D
:1020A0008111F3CF82E08093F502EFCF88E7809330
:1020B000BB0084E88093BC0062E080E80E941210BC
:1020C000882319F38091F60281FD05C08091B90043
:1020D000887F883119F781E0089584E98093BC00F6
:1020E00064E080E10C9412108093BB0084E880933C
:1020F000BC0063E080E80E9412108823A1F0809168
:10210000F60281FD0DC08091B900887F883241F0D0
:102110008091F502811106C092E09093F502089536
:1021200081E0089580E008951092F502089580936B
:10213000F6021092B90084FF05C08CE08093B800CD
:102140000C94941088E4FACFCF93DF93FC0123A57D
:10215000222389F0EC010E943C10811104C080E030
:10216000DF91CF9108958EA1811107C00E94741054
:102170008823A9F31BA681E0F3CF80E4F7CF0F9368
:102180001F93CF93DF93C62FD42F8901633001F1C2
:1021900038F4613099F0623009F449C0C1E012C0EE
:1021A000663029F1673091F16530C1F70E94A410C3
:1021B000811117C00E946D10C0E004C0FC0186A50B
:1021C0000E9497108C2FDF91CF911F910F9108954E
:1021D000FC0116A221E023A74111E0CF0E946D105F
:1021E000DDCF8D2F0E9474108111D8CFE3CF0E94D4
:1021F000A4108823F9F2DD2389F2F80181918F017F
:102200000E9474108823B1F2D150F5CF0E94A4101F
:10221000882381F2DD2311F2F80184910E94741069
:10222000C82F882379F20F5F1F4FD150F3CFFC01E5
:1022300046A321E023A7B2CFDB011496ED91FC91D8
:1022400030E020E065E00994DB011496ED91FC910B
:1022500030E020E062E00994DB011496ED91FC91FE
:1022600030E020E063E00994CF92DF92EF92FF929A
:102270000F931F93CF93DF938C017B016A0180E062
:10228000F601C491811110C081E0CF3F49F04C2F7D
:10229000B701C8010E941C11882309F444C080E0E2
:1022A000BFEFCB1ADB0AECCF4FEFCF3F89F3CE3F26
:1022B000D9F1C03FA0F7C03E38F04C2F4F70B701A6
:1022C000C8010E942411EBCFC03D38F04C2F4F7055
:1022D000B701C8010E942C11E2CFC03CF8F0D70131
:1022E0001496ED91FC9130E020E040E064E0C801FC
:1022F0000995C295C07FCE5FD0E0CE010E94081044
:10230000D7011496ED91FC9130E020E041E064E0CB
:10231000C8010995CE010E940810C1CFC7FDBFCFEB
:102320008C2F90E0F8CF80E0DF91CF911F910F913B
:10233000FF90EF90DF90CF900895AF92BF92CF9231
:10234000DF92FF920F931F93CF93DF936C018B016A
:10235000F42EE90180E1481709F47EC0841778F172
:10236000AAE04A1709F461C0BFE04B1709F47FC027
:10237000F80102811381F2E3FF1609F4DDC0FF15B5
:1023800008F48EC085E1F81609F4DBC0A7E1FA165F
:1023900009F4ECC0B4E1FB1265C0D8011696ED91CA
:1023A000FC91179715968C918E0F9F2F911D11926E
:1023B0008E179F07E1F7C8010E94D50D53C0E1E1D8
:1023C0004E1709F451C0F5E14F13D2CFFB01A280A3
:1023D000B38045E557E1C6010E943411D50114963A
:1023E0004C91406BB801C6010E941C1141E0B8013C
:1023F000C6010E942411F50126813781D801149667
:10240000ED91FC91D50115964C9166E0C6010995B8
:1024100081111CC080E0DF91CF911F910F91FF903F
:10242000DF90CF90BF90AF900895DB011496ED91AF
:10243000FC9130E020E042E061E0C60109954DE505
:1024400057E1B801C6010E94341192CF40E0B801B3
:10245000C6010E942C118CCF4CE457E1B801C60193
:102460000E94341181E0D7CF41E457E1F7CF41E03A
:10247000C6010E942C1140E0B801C6010E9424113F
:1024800041E8B801C6010E941C114881B801C6018B
:102490000E941C1140E0B801C6010E942C11E2CF3D
:1024A000E6E4FE1609F46CC0F7E4FF1609F46DC00B
:1024B0008BE3F812D7CF99818B8138E0390F8130C7
:1024C00031F0833011F0392F02C0392F985021E0BC
:1024D000D80113964C91491708F420E041E03917D0
:1024E00008F040E091E0F8015281351708F490E0DF
:1024F000322F342B932319F4242309F4B3CFFA8019
:10250000D12CC12C843048F490E0FC01E65CFE4FF5
:10251000C0808A5C9E4FDC01DC90F7FE04C0BE01E7
:10252000C8010E94A90D88818C0D888389818D0D39
:102530008983FF0C91F796CFBE01C8010E94A90DB7
:1025400091CFC8010E94BF0D882309F463CFD80141
:102550001696ED91FC91179715968C918E0F9F2FE3
:10256000911D11928E179F07E1F77CCF1882F80119
:1025700082818983858181508A8383818B8372CF15
:10258000D80115968C9188836DCFF8018181FBCF9E
:102590000F93FC010150040F84A996A9941788F0A9
:1025A000081710F4041778F42150260F83A995A971
:1025B000961758F0281760F481E0261720F40F9141
:1025C0000895081778F780E0FACF2817A8F7FBCF0F
:1025D00081E0F5CFFF920F931F93CF93DF93D82F16
:1025E000162FF42EC22F022F242F462F682F8BEF89
:1025F00092E00E94C8128823E9F04F2D612F8D2FA1
:102600000E94E00D4C2F612F8D2F0E94360E8FEF10
:102610008F0D4C2F612F8D0F0E94360E6FEF6C0FB8
:10262000610F4F2D8D2FDF91CF911F910F91FF9053
:102630000C94E00DDF91CF911F910F91FF900895C1
:102640000F931F93CF93DF93C82FD62F142F042FF0
:1026500021E0462F682F8BEF92E00E94C81288235A
:1026600049F0412F6D2F8C2FDF91CF911F910F914A
:102670000C94360EDF91CF911F910F9108950F9317
:1026800001E020E84DE260E08BEF92E00E94C8128A
:10269000882331F040E86DE280E00F910C94E00D6A
:1026A0000F9108955F926F927F928F929F92AF9257
:1026B000BF92CF92DF92EF92FF920F931F93CF932F
:1026C000DF93EC01C62E142FD22EEC80FD80C701C3
:1026D0000E94E90F082F8C819D810E94EC0F982E9B
:1026E000AA24AA94013011F48FE0A82E8C819D8138
:1026F0000E94E50F082F8C819D810E94E10FB82E6A
:102700008C819D810E94021020E62D1570F40097A7
:1027100061F0E80EF91E01E6BD14C0F4188A1B8AA8
:102720001C8A198A1A8A80E05AC08C819D810E9475
:102730000510E0E4ED1530F4009721F0E80EF91EE5
:1027400001E4EACFF1E1EF0EF11CE6CFB01630F371
:10275000892D90E0F70124912F3F39F4FFEFEF1A14
:10276000FF0AB016D9F20F5FF5CFD0125FC08C818F
:102770009D810E94E90F97012F5F3F4FF70188234A
:1027800019F0823009F03BC084918B8BF9012491C0
:102790002C8BF7013396E491E88BF7013496E491A2
:1027A000E98BF7013596E491EA8BE114F10409F421
:1027B000BACF8C819D810E94EC0FA82EDB88BC884B
:1027C0008989C80E1B198A89181B0B2D2D2D412FA5
:1027D0006C2DCE010E94C812811131C08889DF9111
:1027E000CF911F910F91FF90EF90DF90CF90BF900E
:1027F000AF909F908F907F906F905F90089584919D
:10280000982F9F7092509A8B82958F70898BF901C7
:102810002491822F8F708C8B22952F702B8BF70138
:102820003296E491E295EF70E88BBFCF3296E49157
:10283000EA21E80FF92FF11DEE0EFF1E92CFEA0CF0
:10284000F11CF7E0DF0ED694D694D694012F0B0D31
:102850004E012CE1820E911C6D2C712C101709F485
:10286000BDCF5C2C570112C0F50184916A817B8138
:102870005C8E1D8F1F8E8E8F94014BE3CE010E94C4
:10288000DC0DFFEFAF1ABF0A28E0520E8A2D8E1919
:102890008D1550F3E60CF71C1F5FE0CFEF92FF920F
:1028A0000F931F93CF93DF93F82E062FE42E152F4F
:1028B000E0911003F09111038BEF92E00995080F5E
:1028C000CE2DD12F10E02991211108C0812FDF9149
:1028D000CF911F910F91FF90EF900895402F6F2D92
:1028E0008BEF92E00E945213F80E180FECCF89394B
:1028F0002AE3920768F0EBE3FCE93197F1F7880FE0
:10290000991F880F991F85549C490197F1F70895E5
:1029100082309105E0F3880F991F880F991F059762
:10292000F4CFAF92BF92CF92DF92EF92FF920F93CC
:102930001F93CF93DF93C82F862F6AE00E94931CCA
:10294000C82ED12C2C2F30E050E040E02E51310920
:1029500041095109ACE9B6EE0E945D1C25E430E066
:1029600040E050E00E94301CDA01C901885A944EC0
:10297000AF4FBF4F7C0140ED57E0C23310F448EE3B
:1029800053E000E117E2081B190B041B150B440F61
:10299000551F440F551FEA012597B12CA12CAC14EB
:1029A000BD04ACF4C7010E94771461E08AE00E9484
:1029B000C80CCE010197F1F760E08AE00E94C80CD4
:1029C000C8010E9477148FEFA81AB80AE8CFDF91E8
:1029D000CF911F910F91FF90EF90DF90CF90BF901C
:1029E000AF900895DF92EF92FF920F931F93CF93D2
:1029F000DF93EC01D62E1CAD0BAD7C0184E0E80E1C
:102A0000F11CE98DFA8DC7010995412F480F2D2D35
:102A1000602FC7010E9452139BAD890F8BAF81E0DD
:102A200090E0DF91CF911F910F91FF90EF90DF9099
:102A30000895089590E080E008950F931F93CF9339
:102A4000DF93CEE1D1E08C010E511140C8018C0F13
:102A50009D1F0E941A1C899381E0C432D807B1F7E8
:102A60008EE191E0DF91CF911F910F910895AF9288
:102A7000BF92DF92EF92FF920F931F93CF93DF935A
:102A80005C010EE111E0D0E0C0E0F801D1908F01CF
:102A90007501EC0EFD1EC7010E941A1CD81621F00C
:102AA0006D2DC7010E94221C2196C630D10569F701
:102AB0008EE191E0DF91CF911F910F91FF90EF9008
:102AC000DF90BF90AF900895CF92DF92EF92FF9288
:102AD0000F931F93CF93DF93CDB7DEB7A1970FB6B8
:102AE000F894DEBF0FBECDBF282F30E050E040E0AD
:102AF00019A28E010F5D1F4F8AE0C82ED12CE12C48
:102B0000F12CCA01B901A70196010E94621C605D07
:102B1000F80162938F01211531054105510589F7AF
:102B200090E080E0309761F001900020E9F7319764
:102B3000AF01401B510BB80187EF92E00E94610D7D
:102B4000A1960FB6F894DEBF0FBECDBFDF91CF9137
:102B50001F910F91FF90EF90DF90CF900895FC01AF
:102B600001900020E9F73197AF01481B590BBC01D8
:102B700087EF92E00C94610DCF92DF92EF92FF927B
:102B80000F931F93CF93DF9380913403811105C07E
:102B900081E0809334030E94B50FC091FD02D09173
:102BA000FE02E0912C03F0912D0382E00995E09163
:102BB0002C03F0912D0381E0099530E020E044E101
:102BC000BE018BEF92E00E94DC0D2EE233E047E184
:102BD000BE018BEF92E00E94DC0DE0912C03F0919E
:102BE0002D0380E0099580E9E82E8EE0F82E98E02C
:102BF000C92E91E0D92EDAE5C091EB02C111D2C005
:102C00000E943F134DE260E080E40E94201343E104
:102C10006DE28AE20E94201343E16DE285E50E94A5
:102C200020138CE892E10E941C0C13E010933203F5
:102C3000C6E2C093330380911E010E94641583E4B1
:102C400080933203C0933303809120010E94641566
:102C500082E599E00E941C0C80E380933203C093CC
:102C6000330380EF91E00E94AF1580E78093320339
:102C7000C093330380EF91E00E94AF1588E690E0A7
:102C80000E941C0C10933203CEE3C0933303809157
:102C90001F010E94641582EF91E00E94AF158DE242
:102CA00080933203C0933303809122010E94641504
:102CB00082EF91E00E94AF1588E580933203C093C4
:102CC0003303809121010E94641582EF91E00E94FC
:102CD000AF158091E502823009F45BC008F043C073
:102CE000882309F44AC0813009F44CC0E0910903FB
:102CF000F0910A03309719F08BEF92E0099500915B
:102D0000FD021091FE02E0912C03F0912D0382E070
:102D10000995E0912C03F0912D0381E0099530E0B5
:102D200020E045E1B8018BEF92E00E94DC0DC82F56
:102D3000882341F02EE233E047E1B8018BEF92E0C7
:102D40000E94DC0DE0912C03F0912D0380E00995A9
:102D5000C11152CFDF91CF911F910F91FF90EF9052
:102D6000DF90CF9008958330C1F023E14BE26DE214
:102D7000843009F0BBCF85E509C02EE240E460E075
:102D800080E004C02EE240E460E080E40E94EA12A9
:102D9000ADCF23E14BE26DE2F3CF23E14CE26DE2F4
:102DA0008AE2F4CFC630B9F482E599E00E941C0CA7
:102DB00047EF51E064E18AE00E944E1445E052E0A2
:102DC00068E28AE00E944E144DE152E067E38AE037
:102DD0000E944E148BCF8FEF8C0F823008F047C0CB
:102DE00082E599E00E941C0C8091E4024CE451E0E1
:102DF000811102C04EE351E06FE085E00E944E1465
:102E000086E4809332038FE0809333038091230123
:102E10000E9464158091EB02823031F42FE040E291
:102E200063E081E40E94EA128091E4024FE651E0FF
:102E3000813011F44AE551E06EE185E00E944E14C4
:102E40008091E40249E951E0823011F444E851E014
:102E50006DE285E00E944E148091E4024BEB51E05C
:102E6000833011F44EEA51E06CE385E0B1CF8DEF91
:102E70008C0F823008F582E599E00E941C0C4CED25
:102E800051E0C33011F448EC51E064E18AE00E9463
:102E90004E1448E352E068E28EE10E944E14D09353
:102EA000320388E28093330380911D010E946415F0
:102EB0002FE044E16CE15FCFC53009F017CF88E621
:102EC00090E00E941C0C8091FD029091FE0221E096
:102ED0008830920741F090930B0180930A01D092C1
:102EE000FE02C092FD02F0920901E09208018BEF10
:102EF00092E00E947C0F46E452E064E183E00E948D
:102F00004E148091FD029091FE028850914009F08C
:102F1000EDCE80910A0190910B019093FE02809377
:102F2000FD028BEF92E00E947C0FE0CE1F920F9289
:102F30000FB60F9211242F933F938F939F93AF93CC
:102F4000BF938091F1029091F202A091F302B091AF
:102F5000F4023091F00223E0230F2D3758F501964B
:102F6000A11DB11D2093F0028093F1029093F20213
:102F7000A093F302B093F4028091EC029091ED02E1
:102F8000A091EE02B091EF020196A11DB11D8093B8
:102F9000EC029093ED02A093EE02B093EF02BF918A
:102FA000AF919F918F913F912F910F900FBE0F90F6
:102FB0001F90189526E8230F0296A11DB11DD2CFB0
:102FC0001F920F920FB60F9211242F933F934F939E
:102FD0005F936F937F938F939F93AF93BF93EF9381
:102FE000FF93E0911601F09117010995FF91EF9180
:102FF000BF91AF919F918F917F916F915F914F9111
:103000003F912F910F900FBE0F901F9018951F9218
:103010000F920FB60F9211242F933F934F935F930C
:103020006F937F938F939F93AF93BF93EF93FF9390
:10303000E0911401F09115010995FF91EF91BF9175
:10304000AF919F918F917F916F915F914F913F9140
:103050002F910F900FBE0F901F901895CF93DF9375
:1030600000D000D000D01F92CDB7DEB7789484B5E1
:10307000826084BD84B5816084BD85B5826085BD74
:1030800085B5816085BD80916E00816080936E0002
:1030900010928100809181008260809381008091F4
:1030A00081008160809381008091800081608093A5
:1030B00080008091B10084608093B1008091B00065
:1030C00081608093B00080917A00846080937A0060
:1030D00080917A00826080937A0080917A0081608A
:1030E00080937A0080917A00806880937A001092B1
:1030F000C10061E08AE00E94F60C60E08AE00E9474
:10310000C80C61E089E00E94F60C60E089E00E9452
:10311000C80C61E085E00E94F60C60E085E00E944A
:10312000C80C60E088E00E94F60C61E086E00E9436
:10313000F60C60E086E00E94C80C61E087E00E9427
:10314000F60C61E087E00E94C80C62E083E00E9418
:10315000F60C62E082E00E94F60C62E084E00E94DD
:10316000F60C8EE39DE090931701809316018091F9
:103170006900837F846080936900E99A90E080E031
:103180000E941D1580911E018E51863428F4809175
:103190001F0184518D3DB0F086E0E4E2F1E0DE01F4
:1031A000119601900D928A95E1F786E0FE01319625
:1031B000AEE1B1E001900D928A95E1F790E080E0F8
:1031C0000E94371580917A00887F846080937A000E
:1031D00046E9442E512C612C712C20E6222E2DE044
:1031E000322E3EE3C32E3DE0D32E0E94320D4B0122
:1031F0005C011091EB02163051F4A30192010E9480
:10320000621C61E020FD60E085E00E94C80C8091B6
:10321000EA028823B9F18091E8029091E9022091B5
:10322000E6023091E702820F931F9093E7028093AA
:10323000E6021092EA029C0197FF04C0222733277E
:10324000281B390B22303105ECF02FEF3FEF181619
:10325000190614F421E030E01092E7021092E60221
:10326000111140C18091E502823009F408C108F0D3
:10327000B8C0882309F4D3C0813009F4E8C081E0E4
:1032800080931C0184E00E949F0C082F80931B01F7
:10329000811167C180911A01813051F40E94320D71
:1032A0006093E0027093E1028093E2029093E30264
:1032B00080911B0180931A018091DC029091DD02C4
:1032C000A091DE02B091DF020097A105B105C9F01F
:1032D000A5019401281B390B4A0B5B0BDA01C901CC
:1032E00081369A4EA105B10560F060E089E00E9448
:1032F000C80C1092DC021092DD021092DE021092D5
:10330000DF0288E00E949F0C892B09F4AAC18091FA
:10331000DB028111A6C18091D7029091D802A091C1
:10332000D902B091DA02892B8A2B8B2B09F4AFC119
:103330008091D7029091D802A091D902B091DA027F
:10334000A5019401281B390B4A0B5B0BDA01C9015B
:103350004597A105B10508F48AC161E086E00E94A5
:10336000C80C60E087E00E94C80C61E089E00E9420
:10337000C80C8092DC029092DD02A092DE02B09234
:10338000DF023091EB023F8385E08093EB020E94E5
:10339000BC1581E08093DB0261E085E00E94C80CEF
:1033A0000E94320D4B015C0110E000E0EE24EA9433
:1033B00093E0F92E0E94320D681979098A099B0958
:1033C000643671058105910508F06AC10E94650C9B
:1033D0008E159F0508F47C010817190758F78C0112
:1033E000E9CF833009F463C0843009F048CF90916D
:1033F000210184E1829FA001839F500D11249A0135
:10340000290F311DC901243131050CF469C0213F58
:10341000310514F080EF90E08093210130CF80914E
:103420001E0195E0929FA001939F500D1124840FDF
:10343000952F911D8E31910544F08436910514F03D
:1034400083E690E080931E011ACF8EE1FBCF80913E
:10345000200195E0929FA001939F500D1124840FAD
:10346000952F911D8E31910544F08436910514F00D
:1034700083E690E08093200102CF8EE1FBCF809124
:103480001F0194E1929FA001939F500D1124840F7E
:10349000952F911D8431910544F0813F910514F0E1
:1034A00080EF90E080931F01EACE84E1FBCF909102
:1034B000220184E1829FA001839F500D11249A0173
:1034C000290F311DC9012431310544F0213F310557
:1034D00014F080EF90E080932201D1CE84E1FBCF05
:1034E00084E19ACF113091F48091E402820F932FFE
:1034F000911D8F3F980741F08430910514F083E0CF
:1035000090E08093E402BBCE80E0FBCF123091F4D8
:1035100080912301820F932F911D8F3F980741F0D7
:103520008536910514F084E690E080932301A7CEC0
:1035300080E0FBCF8DEF810F823008F0A0CE80912C
:103540001D01820F932F911D1816190644F4863021
:10355000910514F085E090E080931D0190CE81E00C
:10356000FBCF813009F0A4CE80911A018111A0CE49
:103570000E94320D2091E0023091E1024091E2027E
:103580005091E302DC01CB01821B930BA40BB50B22
:10359000163051F41092EB0260E085E00E94C80CF6
:1035A00081E080931C0184CEAC01BD0145515109DD
:1035B00061097109433D53406105710508F044C03C
:1035C00011110BC08091E5028F5F853018F4809354
:1035D000E502E6CF1092E502E3CF1130C9F4809105
:1035E000E402811104C082E08093EB02D9CF8130E4
:1035F00011F483E0F9CF823011F484E0F5CF833009
:1036000079F690E080E00E9437151092EB02C8CF67
:10361000123019F40093EB02C3CF133049F48091B8
:103620001D013CE0839FC00111240E943715E9CFA2
:10363000143009F0B5CF80911D014CE0849FC0018A
:1036400011240E941D15DDCF883E9340A105B105D0
:1036500008F4A6CF1111A4CF0093EB021092E4025C
:103660009FCF88E00E949F0C892B09F489C080912C
:103670001C01882321F00E94BC1510921C0180E0DF
:1036800090E0892B09F4B1CD0E940000A6CD809274
:10369000D7029092D802A092D902B092DA0248CE14
:1036A00060E085E00E94C80C0E191F090233110565
:1036B00078F486E08093EB0261E087E00E94C80C1A
:1036C00060E086E00E94C80C81E080931C01CFCFAF
:1036D00016950795E00EF11EF0921901E09218017F
:1036E0000E94650C11E0E816F90608F010E00E944F
:1036F000650C21E0E816F90608F020E01217B9F38E
:10370000E99830921701209216018091230144E636
:10371000849FC00111240E94771460911F016623C9
:1037200021F080911E010E94911480912201882332
:1037300081F06AE00E94931C90E030E020E02817BE
:1037400039073CF4EBE3FCE93197F1F72F5F3F4F8A
:10375000F6CF60912101662321F0809120010E9423
:103760009114D0921701C092160180916900837F55
:10377000846080936900E99A5F815093EB029CCF4B
:103780001092DB0274CF1092FA021092F9028EE2CC
:1037900091E09093F8028093F70210923203109216
:1037A000330310923403109200031092FF02109220
:1037B0000203109201031092040381E0809303033B
:1037C00082E28093050310920A0310920903EEE14E
:1037D000F3E08FEF819393E0EC32F907D9F781E0C2
:1037E00080931B032AE13CE03093110320931003E4
:1037F00080931203109213031092140380E48093B9
:103800001503109216038EE89DE090932D0380938C
:103810002C038EE091E09093FE028093FD021092C3
:1038200029030E94B50F8EE291E09093F8028093F5
:10383000F7020895F999FECF92BD81BDF89A9927B4
:1038400080B50895262FF999FECF1FBA92BD81BD8C
:1038500020BD0FB6F894FA9AF99A0FBE0196089512
:10386000052E97FB1EF400940E94471C57FD07D0BD
:103870000E94621C07FC03D04EF40C94471C509528
:103880004095309521953F4F4F4F5F4F089590954C
:103890008095709561957F4F8F4F9F4F08950E943F
:1038A000841CA59F900DB49F900DA49F800D911D29
:1038B00011240895B7FF0C944F1C0E944F1C821BCB
:1038C000930B0895A1E21A2EAA1BBB1BFD010DC08C
:1038D000AA1FBB1FEE1FFF1FA217B307E407F507C0
:1038E00020F0A21BB30BE40BF50B661F771F881F9C
:1038F000991F1A9469F760957095809590959B0132
:10390000AC01BD01CF010895A29FB001B39FC001DA
:10391000A39F700D811D1124911DB29F700D811DFB
:103920001124911D0895991B79E004C0991F9617E1
:1039300008F0961B881F7A95C9F780950895EE0FB9
:10394000FF1F0590F491E02D0994F894FFCF0840F3
:10395000000000805602900E000000009D11000142
:10396000BF10600D600DF4010101010128145032F7
:10397000324C28145032324C00000000F214610D19
:103980001A151915000100FF0100FF003E20D0A10B
:10399000D0B4D0B2D0B8D0B33A002020D0A1D0B4A7
:1039A000D0B2D0B8D0B33A003E20D0A1D0BED1859D
:1039B000D180D0B0D0BDD0B8D182D18C002020D061
:1039C000A1D0BED185D180D0B0D0BDD0B8D182D168
:1039D0008C003E20D097D0B0D0B3D180D183D0B767
:1039E000D0B8D182D18C002020D097D0B0D0B3D124
:1039F00080D183D0B7D0B8D182D18C003E20D09274
:103A0000D18BD185D0BED0B4002020D092D18BD123
:103A100085D0BED0B400D0A1D0BED185D180D0B0E9
:103A2000D0BDD0B8D182D18C3A00D097D0B0D0B32D
:103A3000D180D183D0B7D0B8D182D18C3A002500C3
:103A4000D0BCD18100D09ED0A8D098D091D09AD0AF
:103A5000902100D09DD0B5D18220D181D0B8D0B3F3
:103A6000D0BDD0B0D0BBD0B0203000D09DD0B0D031
:103A7000B6D0BCD0B820D0BAD0BDD0BED0BFD0BA9E
:103A8000D1832E2E2E00D0AFD187D0B5D0B9D0BAE9
:103A9000D0B020002AD0A1D0B2D0B0D180D0BAD03E
:043AA000B02A000048
:107E0000112484B714BE81FFF0D085E080938100F7
:107E100082E08093C00088E18093C10086E0809377
:107E2000C20080E18093C4008EE0C9D0259A86E02C
:107E300020E33CEF91E0309385002093840096BBD3
:107E4000B09BFECF1D9AA8958150A9F7CC24DD24C4
:107E500088248394B5E0AB2EA1E19A2EF3E0BF2EE7
:107E6000A2D0813461F49FD0082FAFD0023811F036
:107E7000013811F484E001C083E08DD089C08234E0
:107E800011F484E103C0853419F485E0A6D080C0E4
:107E9000853579F488D0E82EFF2485D0082F10E0AE
:107EA000102F00270E291F29000F111F8ED06801E7
:107EB0006FC0863521F484E090D080E0DECF843638
:107EC00009F040C070D06FD0082F6DD080E0C81688
:107ED00080E7D80618F4F601B7BEE895C0E0D1E017
:107EE00062D089930C17E1F7F0E0CF16F0E7DF06D8
:107EF00018F0F601B7BEE89568D007B600FCFDCFD4
:107F0000A601A0E0B1E02C9130E011968C91119780
:107F100090E0982F8827822B932B1296FA010C0160
:107F200087BEE89511244E5F5F4FF1E0A038BF0790
:107F300051F7F601A7BEE89507B600FCFDCF97BE46
:107F4000E89526C08437B1F42ED02DD0F82E2BD052
:107F50003CD0F601EF2C8F010F5F1F4F84911BD097
:107F6000EA94F801C1F70894C11CD11CFA94CF0C13
:107F7000D11C0EC0853739F428D08EE10CD085E9AC
:107F80000AD08FE07ACF813511F488E018D01DD067
:107F900080E101D065CF982F8091C00085FFFCCF94
:107FA0009093C60008958091C00087FFFCCF809118
:107FB000C00084FD01C0A8958091C6000895E0E648
:107FC000F0E098E1908380830895EDDF803219F02E
:107FD00088E0F5DFFFCF84E1DECF1F93182FE3DFCA
:107FE0001150E9F7F2DF1F91089580E0E8DFEE27F6
:047FF000FF270994CA
:027FFE00040479
:00000001FF
